{
  "_format": "hh-sol-artifact-1",
  "contractName": "MarnusNft",
  "sourceName": "contracts/token/MarnusNft.sol",
  "abi": [
    {
      "inputs": [
        {
          "internalType": "string",
          "name": "defaultUri",
          "type": "string"
        }
      ],
      "stateMutability": "nonpayable",
      "type": "constructor"
    },
    {
      "anonymous": false,
      "inputs": [
        {
          "indexed": true,
          "internalType": "address",
          "name": "owner",
          "type": "address"
        },
        {
          "indexed": true,
          "internalType": "address",
          "name": "approved",
          "type": "address"
        },
        {
          "indexed": true,
          "internalType": "uint256",
          "name": "tokenId",
          "type": "uint256"
        }
      ],
      "name": "Approval",
      "type": "event"
    },
    {
      "anonymous": false,
      "inputs": [
        {
          "indexed": true,
          "internalType": "address",
          "name": "owner",
          "type": "address"
        },
        {
          "indexed": true,
          "internalType": "address",
          "name": "operator",
          "type": "address"
        },
        {
          "indexed": false,
          "internalType": "bool",
          "name": "approved",
          "type": "bool"
        }
      ],
      "name": "ApprovalForAll",
      "type": "event"
    },
    {
      "anonymous": false,
      "inputs": [
        {
          "indexed": true,
          "internalType": "bytes32",
          "name": "role",
          "type": "bytes32"
        },
        {
          "indexed": true,
          "internalType": "bytes32",
          "name": "previousAdminRole",
          "type": "bytes32"
        },
        {
          "indexed": true,
          "internalType": "bytes32",
          "name": "newAdminRole",
          "type": "bytes32"
        }
      ],
      "name": "RoleAdminChanged",
      "type": "event"
    },
    {
      "anonymous": false,
      "inputs": [
        {
          "indexed": true,
          "internalType": "bytes32",
          "name": "role",
          "type": "bytes32"
        },
        {
          "indexed": true,
          "internalType": "address",
          "name": "account",
          "type": "address"
        },
        {
          "indexed": true,
          "internalType": "address",
          "name": "sender",
          "type": "address"
        }
      ],
      "name": "RoleGranted",
      "type": "event"
    },
    {
      "anonymous": false,
      "inputs": [
        {
          "indexed": true,
          "internalType": "bytes32",
          "name": "role",
          "type": "bytes32"
        },
        {
          "indexed": true,
          "internalType": "address",
          "name": "account",
          "type": "address"
        },
        {
          "indexed": true,
          "internalType": "address",
          "name": "sender",
          "type": "address"
        }
      ],
      "name": "RoleRevoked",
      "type": "event"
    },
    {
      "anonymous": false,
      "inputs": [
        {
          "indexed": true,
          "internalType": "address",
          "name": "from",
          "type": "address"
        },
        {
          "indexed": true,
          "internalType": "address",
          "name": "to",
          "type": "address"
        },
        {
          "indexed": true,
          "internalType": "uint256",
          "name": "tokenId",
          "type": "uint256"
        }
      ],
      "name": "Transfer",
      "type": "event"
    },
    {
      "inputs": [],
      "name": "DEFAULT_ADMIN_ROLE",
      "outputs": [
        {
          "internalType": "bytes32",
          "name": "",
          "type": "bytes32"
        }
      ],
      "stateMutability": "view",
      "type": "function"
    },
    {
      "inputs": [],
      "name": "MINTER_ROLE",
      "outputs": [
        {
          "internalType": "bytes32",
          "name": "",
          "type": "bytes32"
        }
      ],
      "stateMutability": "view",
      "type": "function"
    },
    {
      "inputs": [],
      "name": "OPERATOR_ROLE",
      "outputs": [
        {
          "internalType": "bytes32",
          "name": "",
          "type": "bytes32"
        }
      ],
      "stateMutability": "view",
      "type": "function"
    },
    {
      "inputs": [
        {
          "internalType": "address",
          "name": "proxy",
          "type": "address"
        }
      ],
      "name": "addApprovalWhitelist",
      "outputs": [],
      "stateMutability": "nonpayable",
      "type": "function"
    },
    {
      "inputs": [
        {
          "internalType": "address",
          "name": "",
          "type": "address"
        }
      ],
      "name": "approvalWhitelists",
      "outputs": [
        {
          "internalType": "bool",
          "name": "",
          "type": "bool"
        }
      ],
      "stateMutability": "view",
      "type": "function"
    },
    {
      "inputs": [
        {
          "internalType": "address",
          "name": "to",
          "type": "address"
        },
        {
          "internalType": "uint256",
          "name": "tokenId",
          "type": "uint256"
        }
      ],
      "name": "approve",
      "outputs": [],
      "stateMutability": "nonpayable",
      "type": "function"
    },
    {
      "inputs": [
        {
          "internalType": "address",
          "name": "owner",
          "type": "address"
        }
      ],
      "name": "balanceOf",
      "outputs": [
        {
          "internalType": "uint256",
          "name": "",
          "type": "uint256"
        }
      ],
      "stateMutability": "view",
      "type": "function"
    },
    {
      "inputs": [
        {
          "internalType": "uint256",
          "name": "tokenId",
          "type": "uint256"
        }
      ],
      "name": "getApproved",
      "outputs": [
        {
          "internalType": "address",
          "name": "",
          "type": "address"
        }
      ],
      "stateMutability": "view",
      "type": "function"
    },
    {
      "inputs": [
        {
          "internalType": "bytes32",
          "name": "role",
          "type": "bytes32"
        }
      ],
      "name": "getRoleAdmin",
      "outputs": [
        {
          "internalType": "bytes32",
          "name": "",
          "type": "bytes32"
        }
      ],
      "stateMutability": "view",
      "type": "function"
    },
    {
      "inputs": [
        {
          "internalType": "bytes32",
          "name": "role",
          "type": "bytes32"
        },
        {
          "internalType": "address",
          "name": "account",
          "type": "address"
        }
      ],
      "name": "grantRole",
      "outputs": [],
      "stateMutability": "nonpayable",
      "type": "function"
    },
    {
      "inputs": [
        {
          "internalType": "bytes32",
          "name": "role",
          "type": "bytes32"
        },
        {
          "internalType": "address",
          "name": "account",
          "type": "address"
        }
      ],
      "name": "hasRole",
      "outputs": [
        {
          "internalType": "bool",
          "name": "",
          "type": "bool"
        }
      ],
      "stateMutability": "view",
      "type": "function"
    },
    {
      "inputs": [
        {
          "internalType": "address",
          "name": "owner",
          "type": "address"
        },
        {
          "internalType": "address",
          "name": "operator",
          "type": "address"
        }
      ],
      "name": "isApprovedForAll",
      "outputs": [
        {
          "internalType": "bool",
          "name": "",
          "type": "bool"
        }
      ],
      "stateMutability": "view",
      "type": "function"
    },
    {
      "inputs": [
        {
          "internalType": "address",
          "name": "_to",
          "type": "address"
        }
      ],
      "name": "mint",
      "outputs": [
        {
          "internalType": "uint256",
          "name": "",
          "type": "uint256"
        }
      ],
      "stateMutability": "nonpayable",
      "type": "function"
    },
    {
      "inputs": [],
      "name": "name",
      "outputs": [
        {
          "internalType": "string",
          "name": "",
          "type": "string"
        }
      ],
      "stateMutability": "view",
      "type": "function"
    },
    {
      "inputs": [
        {
          "internalType": "uint256",
          "name": "tokenId",
          "type": "uint256"
        }
      ],
      "name": "ownerOf",
      "outputs": [
        {
          "internalType": "address",
          "name": "",
          "type": "address"
        }
      ],
      "stateMutability": "view",
      "type": "function"
    },
    {
      "inputs": [
        {
          "internalType": "address",
          "name": "proxy",
          "type": "address"
        }
      ],
      "name": "removeApprovalWhitelist",
      "outputs": [],
      "stateMutability": "nonpayable",
      "type": "function"
    },
    {
      "inputs": [
        {
          "internalType": "bytes32",
          "name": "role",
          "type": "bytes32"
        },
        {
          "internalType": "address",
          "name": "account",
          "type": "address"
        }
      ],
      "name": "renounceRole",
      "outputs": [],
      "stateMutability": "nonpayable",
      "type": "function"
    },
    {
      "inputs": [
        {
          "internalType": "bytes32",
          "name": "role",
          "type": "bytes32"
        },
        {
          "internalType": "address",
          "name": "account",
          "type": "address"
        }
      ],
      "name": "revokeRole",
      "outputs": [],
      "stateMutability": "nonpayable",
      "type": "function"
    },
    {
      "inputs": [
        {
          "internalType": "address",
          "name": "from",
          "type": "address"
        },
        {
          "internalType": "address",
          "name": "to",
          "type": "address"
        },
        {
          "internalType": "uint256",
          "name": "tokenId",
          "type": "uint256"
        }
      ],
      "name": "safeTransferFrom",
      "outputs": [],
      "stateMutability": "nonpayable",
      "type": "function"
    },
    {
      "inputs": [
        {
          "internalType": "address",
          "name": "from",
          "type": "address"
        },
        {
          "internalType": "address",
          "name": "to",
          "type": "address"
        },
        {
          "internalType": "uint256",
          "name": "tokenId",
          "type": "uint256"
        },
        {
          "internalType": "bytes",
          "name": "data",
          "type": "bytes"
        }
      ],
      "name": "safeTransferFrom",
      "outputs": [],
      "stateMutability": "nonpayable",
      "type": "function"
    },
    {
      "inputs": [
        {
          "internalType": "address",
          "name": "operator",
          "type": "address"
        },
        {
          "internalType": "bool",
          "name": "approved",
          "type": "bool"
        }
      ],
      "name": "setApprovalForAll",
      "outputs": [],
      "stateMutability": "nonpayable",
      "type": "function"
    },
    {
      "inputs": [
        {
          "internalType": "bytes4",
          "name": "interfaceId",
          "type": "bytes4"
        }
      ],
      "name": "supportsInterface",
      "outputs": [
        {
          "internalType": "bool",
          "name": "",
          "type": "bool"
        }
      ],
      "stateMutability": "view",
      "type": "function"
    },
    {
      "inputs": [],
      "name": "symbol",
      "outputs": [
        {
          "internalType": "string",
          "name": "",
          "type": "string"
        }
      ],
      "stateMutability": "view",
      "type": "function"
    },
    {
      "inputs": [
        {
          "internalType": "uint256",
          "name": "tokenId",
          "type": "uint256"
        }
      ],
      "name": "tokenURI",
      "outputs": [
        {
          "internalType": "string",
          "name": "",
          "type": "string"
        }
      ],
      "stateMutability": "view",
      "type": "function"
    },
    {
      "inputs": [
        {
          "internalType": "address",
          "name": "from",
          "type": "address"
        },
        {
          "internalType": "address",
          "name": "to",
          "type": "address"
        },
        {
          "internalType": "uint256",
          "name": "tokenId",
          "type": "uint256"
        }
      ],
      "name": "transferFrom",
      "outputs": [],
      "stateMutability": "nonpayable",
      "type": "function"
    },
    {
      "inputs": [
        {
          "internalType": "string",
          "name": "baseTokenURI",
          "type": "string"
        }
      ],
      "name": "updateBaseURI",
      "outputs": [],
      "stateMutability": "nonpayable",
      "type": "function"
    }
  ],
  "bytecode": "0x608060405260006009553480156200001657600080fd5b50604051620020b7380380620020b7833981016040819052620000399162000253565b604080518082018252600a81526913585c9b9d5cc813919560b21b60208083019182528351808501909452600784526613505497d3919560ca1b9084015281519192916200008a91600091620001ad565b508051620000a0906001906020840190620001ad565b50508151620000b891506007906020840190620001ad565b50620000c6600033620000f9565b620000f27f97667070c54ef182b0f5858b034beac1b6f3089aa2d3188bb1e8929f4fa9b92933620000f9565b5062000382565b62000105828262000109565b5050565b60008281526006602090815260408083206001600160a01b038516845290915290205460ff16620001055760008281526006602090815260408083206001600160a01b03851684529091529020805460ff19166001179055620001693390565b6001600160a01b0316816001600160a01b0316837f2f8788117e7eff1d82e926ec794901d17c78024a50270940304540a733656f0d60405160405180910390a45050565b828054620001bb906200032f565b90600052602060002090601f016020900481019282620001df57600085556200022a565b82601f10620001fa57805160ff19168380011785556200022a565b828001600101855582156200022a579182015b828111156200022a5782518255916020019190600101906200020d565b50620002389291506200023c565b5090565b5b808211156200023857600081556001016200023d565b600060208083850312156200026757600080fd5b82516001600160401b03808211156200027f57600080fd5b818501915085601f8301126200029457600080fd5b815181811115620002a957620002a96200036c565b604051601f8201601f19908116603f01168101908382118183101715620002d457620002d46200036c565b816040528281528886848701011115620002ed57600080fd5b600093505b82841015620003115784840186015181850187015292850192620002f2565b82841115620003235760008684830101525b98975050505050505050565b600181811c908216806200034457607f821691505b602082108114156200036657634e487b7160e01b600052602260045260246000fd5b50919050565b634e487b7160e01b600052604160045260246000fd5b611d2580620003926000396000f3fe608060405234801561001057600080fd5b506004361061018e5760003560e01c806370a08231116100de578063b78437ea11610097578063d539139311610071578063d53913931461037e578063d547741f146103a5578063e985e9c5146103b8578063f5b541a6146103cb57600080fd5b8063b78437ea14610345578063b88d4fde14610358578063c87b56dd1461036b57600080fd5b806370a08231146102e957806391d14854146102fc578063931688cb1461030f57806395d89b4114610322578063a217fddf1461032a578063a22cb4651461033257600080fd5b8063248a9ca31161014b578063419e583d11610125578063419e583d1461028d57806342842e0e146102b05780636352211e146102c35780636a627842146102d657600080fd5b8063248a9ca3146102365780632f2ff15d1461026757806336568abe1461027a57600080fd5b806301ffc9a71461019357806306fdde03146101bb578063081812fc146101d0578063095ea7b3146101fb5780630a75eea21461021057806323b872dd14610223575b600080fd5b6101a66101a13660046118e6565b6103e0565b60405190151581526020015b60405180910390f35b6101c36103f1565b6040516101b29190611a9f565b6101e36101de3660046118aa565b610483565b6040516001600160a01b0390911681526020016101b2565b61020e610209366004611880565b6104aa565b005b61020e61021e3660046116de565b6105c5565b61020e61023136600461172c565b6105ff565b6102596102443660046118aa565b60009081526006602052604090206001015490565b6040519081526020016101b2565b61020e6102753660046118c3565b610630565b61020e6102883660046118c3565b610655565b6101a661029b3660046116de565b60086020526000908152604090205460ff1681565b61020e6102be36600461172c565b6106d3565b6101e36102d13660046118aa565b6106ee565b6102596102e43660046116de565b61074e565b6102596102f73660046116de565b6107b3565b6101a661030a3660046118c3565b610839565b61020e61031d366004611920565b610864565b6101c361088e565b610259600081565b61020e610340366004611844565b61089d565b61020e6103533660046116de565b6108a8565b61020e610366366004611768565b610946565b6101c36103793660046118aa565b610978565b6102597f9f2df0fed2c77648de5860a4cc508cd0818c85b8b8a1ab4ceeef8d981c8956a681565b61020e6103b33660046118c3565b6109de565b6101a66103c63660046116f9565b610a03565b610259600080516020611cd083398151915281565b60006103eb82610a62565b92915050565b60606000805461040090611c27565b80601f016020809104026020016040519081016040528092919081815260200182805461042c90611c27565b80156104795780601f1061044e57610100808354040283529160200191610479565b820191906000526020600020905b81548152906001019060200180831161045c57829003601f168201915b5050505050905090565b600061048e82610a87565b506000908152600460205260409020546001600160a01b031690565b60006104b5826106ee565b9050806001600160a01b0316836001600160a01b031614156105285760405162461bcd60e51b815260206004820152602160248201527f4552433732313a20617070726f76616c20746f2063757272656e74206f776e656044820152603960f91b60648201526084015b60405180910390fd5b336001600160a01b038216148061054457506105448133610a03565b6105b65760405162461bcd60e51b815260206004820152603d60248201527f4552433732313a20617070726f76652063616c6c6572206973206e6f7420746f60448201527f6b656e206f776e6572206f7220617070726f76656420666f7220616c6c000000606482015260840161051f565b6105c08383610ae9565b505050565b600080516020611cd08339815191526105dd81610b57565b506001600160a01b03166000908152600860205260409020805460ff19169055565b6106093382610b61565b6106255760405162461bcd60e51b815260040161051f90611ab2565b6105c0838383610bc0565b60008281526006602052604090206001015461064b81610b57565b6105c08383610d31565b6001600160a01b03811633146106c55760405162461bcd60e51b815260206004820152602f60248201527f416363657373436f6e74726f6c3a2063616e206f6e6c792072656e6f756e636560448201526e103937b632b9903337b91039b2b63360891b606482015260840161051f565b6106cf8282610db7565b5050565b6105c083838360405180602001604052806000815250610946565b6000818152600260205260408120546001600160a01b0316806103eb5760405162461bcd60e51b8152602060048201526018602482015277115490cdcc8c4e881a5b9d985b1a59081d1bdad95b88125160421b604482015260640161051f565b60007f9f2df0fed2c77648de5860a4cc508cd0818c85b8b8a1ab4ceeef8d981c8956a661077a81610b57565b61078683600954610e1e565b6009805490600061079683611c5c565b919050555060016009546107aa9190611bcd565b91505b50919050565b60006001600160a01b03821661081d5760405162461bcd60e51b815260206004820152602960248201527f4552433732313a2061646472657373207a65726f206973206e6f7420612076616044820152683634b21037bbb732b960b91b606482015260840161051f565b506001600160a01b031660009081526003602052604090205490565b60009182526006602090815260408084206001600160a01b0393909316845291905290205460ff1690565b600080516020611cd083398151915261087c81610b57565b61088860078484611629565b50505050565b60606001805461040090611c27565b6106cf338383610fb7565b600080516020611cd08339815191526108c081610b57565b6001600160a01b03821660009081526008602052604090205460ff16156109215760405162461bcd60e51b8152602060048201526015602482015274496e76616c69642070726f7879206164647265737360581b604482015260640161051f565b506001600160a01b03166000908152600860205260409020805460ff19166001179055565b6109503383610b61565b61096c5760405162461bcd60e51b815260040161051f90611ab2565b61088884848484611086565b606061098382610a87565b600061098d6110b9565b905060008151116109ad57604051806020016040528060008152506107aa565b806109b7846110c8565b6040516020016109c89291906119be565b6040516020818303038152906040529392505050565b6000828152600660205260409020600101546109f981610b57565b6105c08383610db7565b6001600160a01b03811660009081526008602052604081205460ff16151560011415610a31575060016103eb565b6001600160a01b0380841660009081526005602090815260408083209386168352929052205460ff165b9392505050565b60006001600160e01b03198216637965db0b60e01b14806103eb57506103eb82611165565b6000818152600260205260409020546001600160a01b0316610ae65760405162461bcd60e51b8152602060048201526018602482015277115490cdcc8c4e881a5b9d985b1a59081d1bdad95b88125160421b604482015260640161051f565b50565b600081815260046020526040902080546001600160a01b0319166001600160a01b0384169081179091558190610b1e826106ee565b6001600160a01b03167f8c5be1e5ebec7d5bd14f71427d1e84f3dd0314c0f7b2291e5b200ac8c7c3b92560405160405180910390a45050565b610ae681336111b5565b600080610b6d836106ee565b9050806001600160a01b0316846001600160a01b03161480610b945750610b948185610a03565b80610bb85750836001600160a01b0316610bad84610483565b6001600160a01b0316145b949350505050565b826001600160a01b0316610bd3826106ee565b6001600160a01b031614610bf95760405162461bcd60e51b815260040161051f90611b51565b6001600160a01b038216610c5b5760405162461bcd60e51b8152602060048201526024808201527f4552433732313a207472616e7366657220746f20746865207a65726f206164646044820152637265737360e01b606482015260840161051f565b610c68838383600161120e565b826001600160a01b0316610c7b826106ee565b6001600160a01b031614610ca15760405162461bcd60e51b815260040161051f90611b51565b600081815260046020908152604080832080546001600160a01b03199081169091556001600160a01b0387811680865260038552838620805460001901905590871680865283862080546001019055868652600290945282852080549092168417909155905184937fddf252ad1be2c89b69c2b068fc378daa952ba7f163c4a11628f55a4df523b3ef91a4505050565b610d3b8282610839565b6106cf5760008281526006602090815260408083206001600160a01b03851684529091529020805460ff19166001179055610d733390565b6001600160a01b0316816001600160a01b0316837f2f8788117e7eff1d82e926ec794901d17c78024a50270940304540a733656f0d60405160405180910390a45050565b610dc18282610839565b156106cf5760008281526006602090815260408083206001600160a01b0385168085529252808320805460ff1916905551339285917ff6391f5c32d9c69d2a47ea670b442974b53935d1edc7fd64eb21e047a839171b9190a45050565b6001600160a01b038216610e745760405162461bcd60e51b815260206004820181905260248201527f4552433732313a206d696e7420746f20746865207a65726f2061646472657373604482015260640161051f565b6000818152600260205260409020546001600160a01b031615610ed95760405162461bcd60e51b815260206004820152601c60248201527f4552433732313a20746f6b656e20616c7265616479206d696e74656400000000604482015260640161051f565b610ee760008383600161120e565b6000818152600260205260409020546001600160a01b031615610f4c5760405162461bcd60e51b815260206004820152601c60248201527f4552433732313a20746f6b656e20616c7265616479206d696e74656400000000604482015260640161051f565b6001600160a01b038216600081815260036020908152604080832080546001019055848352600290915280822080546001600160a01b0319168417905551839291907fddf252ad1be2c89b69c2b068fc378daa952ba7f163c4a11628f55a4df523b3ef908290a45050565b816001600160a01b0316836001600160a01b031614156110195760405162461bcd60e51b815260206004820152601960248201527f4552433732313a20617070726f766520746f2063616c6c657200000000000000604482015260640161051f565b6001600160a01b03838116600081815260056020908152604080832094871680845294825291829020805460ff191686151590811790915591519182527f17307eab39ab6107e8899845ad3d59bd9653f200f220920489ca2b5937696c31910160405180910390a3505050565b611091848484610bc0565b61109d84848484611296565b6108885760405162461bcd60e51b815260040161051f90611aff565b60606007805461040090611c27565b606060006110d5836113a3565b600101905060008167ffffffffffffffff8111156110f5576110f5611ca3565b6040519080825280601f01601f19166020018201604052801561111f576020820181803683370190505b5090508181016020015b600019016f181899199a1a9b1b9c1cb0b131b232b360811b600a86061a8153600a85049450846111585761115d565b611129565b509392505050565b60006001600160e01b031982166380ac58cd60e01b148061119657506001600160e01b03198216635b5e139f60e01b145b806103eb57506301ffc9a760e01b6001600160e01b03198316146103eb565b6111bf8282610839565b6106cf576111cc8161147b565b6111d783602061148d565b6040516020016111e89291906119ed565b60408051601f198184030181529082905262461bcd60e51b825261051f91600401611a9f565b6001811115610888576001600160a01b03841615611254576001600160a01b0384166000908152600360205260408120805483929061124e908490611bcd565b90915550505b6001600160a01b03831615610888576001600160a01b0383166000908152600360205260408120805483929061128b908490611b96565b909155505050505050565b60006001600160a01b0384163b1561139857604051630a85bd0160e11b81526001600160a01b0385169063150b7a02906112da903390899088908890600401611a62565b602060405180830381600087803b1580156112f457600080fd5b505af1925050508015611324575060408051601f3d908101601f1916820190925261132191810190611903565b60015b61137e573d808015611352576040519150601f19603f3d011682016040523d82523d6000602084013e611357565b606091505b5080516113765760405162461bcd60e51b815260040161051f90611aff565b805181602001fd5b6001600160e01b031916630a85bd0160e11b149050610bb8565b506001949350505050565b60008072184f03e93ff9f4daa797ed6e38ed64bf6a1f0160401b83106113e25772184f03e93ff9f4daa797ed6e38ed64bf6a1f0160401b830492506040015b6d04ee2d6d415b85acef8100000000831061140e576d04ee2d6d415b85acef8100000000830492506020015b662386f26fc10000831061142c57662386f26fc10000830492506010015b6305f5e1008310611444576305f5e100830492506008015b612710831061145857612710830492506004015b6064831061146a576064830492506002015b600a83106103eb5760010192915050565b60606103eb6001600160a01b03831660145b6060600061149c836002611bae565b6114a7906002611b96565b67ffffffffffffffff8111156114bf576114bf611ca3565b6040519080825280601f01601f1916602001820160405280156114e9576020820181803683370190505b509050600360fc1b8160008151811061150457611504611c8d565b60200101906001600160f81b031916908160001a905350600f60fb1b8160018151811061153357611533611c8d565b60200101906001600160f81b031916908160001a9053506000611557846002611bae565b611562906001611b96565b90505b60018111156115da576f181899199a1a9b1b9c1cb0b131b232b360811b85600f166010811061159657611596611c8d565b1a60f81b8282815181106115ac576115ac611c8d565b60200101906001600160f81b031916908160001a90535060049490941c936115d381611c10565b9050611565565b508315610a5b5760405162461bcd60e51b815260206004820181905260248201527f537472696e67733a20686578206c656e67746820696e73756666696369656e74604482015260640161051f565b82805461163590611c27565b90600052602060002090601f016020900481019282611657576000855561169d565b82601f106116705782800160ff1982351617855561169d565b8280016001018555821561169d579182015b8281111561169d578235825591602001919060010190611682565b506116a99291506116ad565b5090565b5b808211156116a957600081556001016116ae565b80356001600160a01b03811681146116d957600080fd5b919050565b6000602082840312156116f057600080fd5b610a5b826116c2565b6000806040838503121561170c57600080fd5b611715836116c2565b9150611723602084016116c2565b90509250929050565b60008060006060848603121561174157600080fd5b61174a846116c2565b9250611758602085016116c2565b9150604084013590509250925092565b6000806000806080858703121561177e57600080fd5b611787856116c2565b9350611795602086016116c2565b925060408501359150606085013567ffffffffffffffff808211156117b957600080fd5b818701915087601f8301126117cd57600080fd5b8135818111156117df576117df611ca3565b604051601f8201601f19908116603f0116810190838211818310171561180757611807611ca3565b816040528281528a602084870101111561182057600080fd5b82602086016020830137600060208483010152809550505050505092959194509250565b6000806040838503121561185757600080fd5b611860836116c2565b91506020830135801515811461187557600080fd5b809150509250929050565b6000806040838503121561189357600080fd5b61189c836116c2565b946020939093013593505050565b6000602082840312156118bc57600080fd5b5035919050565b600080604083850312156118d657600080fd5b82359150611723602084016116c2565b6000602082840312156118f857600080fd5b8135610a5b81611cb9565b60006020828403121561191557600080fd5b8151610a5b81611cb9565b6000806020838503121561193357600080fd5b823567ffffffffffffffff8082111561194b57600080fd5b818501915085601f83011261195f57600080fd5b81358181111561196e57600080fd5b86602082850101111561198057600080fd5b60209290920196919550909350505050565b600081518084526119aa816020860160208601611be4565b601f01601f19169290920160200192915050565b600083516119d0818460208801611be4565b8351908301906119e4818360208801611be4565b01949350505050565b7f416363657373436f6e74726f6c3a206163636f756e7420000000000000000000815260008351611a25816017850160208801611be4565b7001034b99036b4b9b9b4b733903937b6329607d1b6017918401918201528351611a56816028840160208801611be4565b01602801949350505050565b6001600160a01b0385811682528416602082015260408101839052608060608201819052600090611a9590830184611992565b9695505050505050565b602081526000610a5b6020830184611992565b6020808252602d908201527f4552433732313a2063616c6c6572206973206e6f7420746f6b656e206f776e6560408201526c1c881bdc88185c1c1c9bdd9959609a1b606082015260800190565b60208082526032908201527f4552433732313a207472616e7366657220746f206e6f6e20455243373231526560408201527131b2b4bb32b91034b6b83632b6b2b73a32b960711b606082015260800190565b60208082526025908201527f4552433732313a207472616e736665722066726f6d20696e636f72726563742060408201526437bbb732b960d91b606082015260800190565b60008219821115611ba957611ba9611c77565b500190565b6000816000190483118215151615611bc857611bc8611c77565b500290565b600082821015611bdf57611bdf611c77565b500390565b60005b83811015611bff578181015183820152602001611be7565b838111156108885750506000910152565b600081611c1f57611c1f611c77565b506000190190565b600181811c90821680611c3b57607f821691505b602082108114156107ad57634e487b7160e01b600052602260045260246000fd5b6000600019821415611c7057611c70611c77565b5060010190565b634e487b7160e01b600052601160045260246000fd5b634e487b7160e01b600052603260045260246000fd5b634e487b7160e01b600052604160045260246000fd5b6001600160e01b031981168114610ae657600080fdfe97667070c54ef182b0f5858b034beac1b6f3089aa2d3188bb1e8929f4fa9b929a2646970667358221220d327dd49eaac77cd0a2f062427cfd9df2d41f74211fc9cb0542a67c03c102d8864736f6c63430008060033",
  "linkReferences": {},
  "deployedLinkReferences": {}
}