{
    "_format": "hh-sol-artifact-1",
    "contractName": "TransferManagerERC721",
    "sourceName": "contracts/transferNft/TransferManagerERC721.sol",
    "abi": [
        {
            "inputs": [
                {
                    "internalType": "address",
                    "name": "_onusExchange",
                    "type": "address"
                }
            ],
            "stateMutability": "nonpayable",
            "type": "constructor"
        },
        {
            "anonymous": false,
            "inputs": [
                {
                    "indexed": false,
                    "internalType": "address",
                    "name": "user",
                    "type": "address"
                },
                {
                    "indexed": false,
                    "internalType": "uint256",
                    "name": "uniqueIdOffchain",
                    "type": "uint256"
                },
                {
                    "indexed": false,
                    "internalType": "uint256",
                    "name": "tokenId",
                    "type": "uint256"
                }
            ],
            "name": "MappingOffchainOnchain",
            "type": "event"
        },
        {
            "inputs": [],
            "name": "DOMAIN_EXCHANGE",
            "outputs": [
                {
                    "internalType": "bytes32",
                    "name": "",
                    "type": "bytes32"
                }
            ],
            "stateMutability": "view",
            "type": "function"
        },
        {
            "inputs": [],
            "name": "ONUS_EXCHANGE",
            "outputs": [
                {
                    "internalType": "address",
                    "name": "",
                    "type": "address"
                }
            ],
            "stateMutability": "view",
            "type": "function"
        },
        {
            "inputs": [
                {
                    "internalType": "uint256",
                    "name": "",
                    "type": "uint256"
                }
            ],
            "name": "isUseNonce",
            "outputs": [
                {
                    "internalType": "bool",
                    "name": "",
                    "type": "bool"
                }
            ],
            "stateMutability": "view",
            "type": "function"
        },
        {
            "inputs": [],
            "name": "marnusNft",
            "outputs": [
                {
                    "internalType": "contract MarnusNft",
                    "name": "",
                    "type": "address"
                }
            ],
            "stateMutability": "view",
            "type": "function"
        },
        {
            "inputs": [
                {
                    "internalType": "address",
                    "name": "_marnusNft",
                    "type": "address"
                }
            ],
            "name": "setMarnusFactoryNft",
            "outputs": [],
            "stateMutability": "nonpayable",
            "type": "function"
        },
        {
            "inputs": [
                {
                    "internalType": "address",
                    "name": "collection",
                    "type": "address"
                },
                {
                    "internalType": "address",
                    "name": "from",
                    "type": "address"
                },
                {
                    "internalType": "address",
                    "name": "to",
                    "type": "address"
                },
                {
                    "internalType": "uint256",
                    "name": "tokenId",
                    "type": "uint256"
                },
                {
                    "internalType": "uint256",
                    "name": "",
                    "type": "uint256"
                },
                {
                    "components": [
                        {
                            "internalType": "address",
                            "name": "offchainOwner",
                            "type": "address"
                        },
                        {
                            "internalType": "address",
                            "name": "collection",
                            "type": "address"
                        },
                        {
                            "internalType": "uint256",
                            "name": "amount",
                            "type": "uint256"
                        },
                        {
                            "internalType": "uint256",
                            "name": "uniqueIdOffchain",
                            "type": "uint256"
                        },
                        {
                            "internalType": "uint8",
                            "name": "v",
                            "type": "uint8"
                        },
                        {
                            "internalType": "bytes32",
                            "name": "r",
                            "type": "bytes32"
                        },
                        {
                            "internalType": "bytes32",
                            "name": "s",
                            "type": "bytes32"
                        }
                    ],
                    "internalType": "struct OrderTypes.AdminSignature",
                    "name": "adminSignature",
                    "type": "tuple"
                }
            ],
            "name": "transferNonFungibleToken",
            "outputs": [],
            "stateMutability": "nonpayable",
            "type": "function"
        }
    ],
    "bytecode": "0x60c060405234801561001057600080fd5b50604051610de3380380610de383398101604081905261002f916100c6565b806001600160a01b03166080816001600160a01b031660601b81525050806001600160a01b0316633644e5156040518163ffffffff1660e01b815260040160206040518083038186803b15801561008557600080fd5b505afa158015610099573d6000803e3d6000fd5b505050506040513d601f19601f820116820180604052508101906100bd91906100f6565b60a0525061010f565b6000602082840312156100d857600080fd5b81516001600160a01b03811681146100ef57600080fd5b9392505050565b60006020828403121561010857600080fd5b5051919050565b60805160601c60a051610c916101526000396000818160a401526103f401526000818161012c0152818161015a0152818161022901526103490152610c916000f3fe608060405234801561001057600080fd5b50600436106100625760003560e01c80630d5eb0581461006757806328febfc01461009f5780633e12ea3d146100d457806347f92026146100e9578063dad4a68314610114578063fb88df5514610127575b600080fd5b61008a610075366004610b99565b60016020526000908152604090205460ff1681565b60405190151581526020015b60405180910390f35b6100c67f000000000000000000000000000000000000000000000000000000000000000081565b604051908152602001610096565b6100e76100e2366004610a10565b61014e565b005b6000546100fc906001600160a01b031681565b6040516001600160a01b039091168152602001610096565b6100e7610122366004610a51565b61021e565b6100fc7f000000000000000000000000000000000000000000000000000000000000000081565b336001600160a01b03167f00000000000000000000000000000000000000000000000000000000000000006001600160a01b0316638da5cb5b6040518163ffffffff1660e01b815260040160206040518083038186803b1580156101b157600080fd5b505afa1580156101c5573d6000803e3d6000fd5b505050506040513d601f19601f820116820180604052508101906101e99190610a34565b6001600160a01b0316146101fc57600080fd5b600080546001600160a01b0319166001600160a01b0392909216919091179055565b336001600160a01b037f0000000000000000000000000000000000000000000000000000000000000000161461029b5760405162461bcd60e51b815260206004820152601c60248201527f5472616e736665723a204f6e6c79206f6e75732045786368616e67650000000060448201526064015b60405180910390fd5b60006102aa6020830183610a10565b6001600160a01b0316141561032857604051632142170760e11b81526001600160a01b0386811660048301528581166024830152604482018590528716906342842e0e90606401600060405180830381600087803b15801561030b57600080fd5b505af115801561031f573d6000803e3d6000fd5b50505050610676565b600061034161033c36849003840184610af4565b61067e565b9050610418817f00000000000000000000000000000000000000000000000000000000000000006001600160a01b0316638da5cb5b6040518163ffffffff1660e01b815260040160206040518083038186803b1580156103a057600080fd5b505afa1580156103b4573d6000803e3d6000fd5b505050506040513d601f19601f820116820180604052508101906103d89190610a34565b6103e860a0860160808701610bcb565b8560a001358660c001357f000000000000000000000000000000000000000000000000000000000000000061070e565b6104645760405162461bcd60e51b815260206004820152601c60248201527f5369676e61747572653a20496e76616c696420666f722061646d696e000000006044820152606401610292565b606082013560009081526001602052604090205460ff16156104ba5760405162461bcd60e51b815260206004820152600f60248201526e139bdb98d9481b9bdd081c9a59da1d608a1b6044820152606401610292565b6001600160a01b0387166104d46040840160208501610a10565b6001600160a01b0316146105215760405162461bcd60e51b815260206004820152601460248201527310dbdb1b1958dd1a5bdb881b9bdd081c9a59da1d60621b6044820152606401610292565b6001600160a01b0386166105386020840184610a10565b6001600160a01b0316146105855760405162461bcd60e51b815260206004820152601460248201527310dbdb1b1958dd1a5bdb881b9bdd081c9a59da1d60621b6044820152606401610292565b60608201356000908152600160208190526040808320805460ff1916909217909155815490516335313c2160e11b81526001600160a01b03888116600483015290911690636a62784290602401602060405180830381600087803b1580156105ec57600080fd5b505af1158015610600573d6000803e3d6000fd5b505050506040513d601f19601f820116820180604052508101906106249190610bb2565b604080516001600160a01b038a16815260608087013560208301529181018390529192507fa3617ba0fae6f8105adafdd3158e5edf81b1b1f213e6ff2e9e1749b83fe495af910160405180910390a150505b505050505050565b8051602080830151604080850151606086015191516000956106f1957f532f8fa0eeefa4df222e1a5c7978ff831bbfe8f12f287f3ad93f32f50507d7c7959194919392019485526001600160a01b0393841660208601529190921660408401526060830191909152608082015260a00190565b604051602081830303815290604052805190602001209050919050565b60405161190160f01b60208201526022810182905260428101879052600090819060620160405160208183030381529060405280519060200120905061075d876001600160a01b03163b151590565b1561082e57604080516020810187905280820186905260f888901b6001600160f81b0319166060820152815160418183030181526061820192839052630b135d3f60e11b9092526001600160a01b03891691631626ba7e916107c3918591606501610be6565b60206040518083038186803b1580156107db57600080fd5b505afa1580156107ef573d6000803e3d6000fd5b505050506040513d601f19601f820116820180604052508101906108139190610aca565b6001600160e01b031916631626ba7e60e01b14915050610852565b866001600160a01b03166108448288888861085c565b6001600160a01b0316149150505b9695505050505050565b60007f7fffffffffffffffffffffffffffffff5d576e7357a4501ddfe92f46681b20a08211156108ce5760405162461bcd60e51b815260206004820152601e60248201527f5369676e61747572653a20496e76616c6964207320706172616d6574657200006044820152606401610292565b8360ff16601b14806108e357508360ff16601c145b61092f5760405162461bcd60e51b815260206004820152601e60248201527f5369676e61747572653a20496e76616c6964207620706172616d6574657200006044820152606401610292565b6040805160008082526020820180845288905260ff871692820192909252606081018590526080810184905260019060a0016020604051602081039080840390855afa158015610983573d6000803e3d6000fd5b5050604051601f1901519150506001600160a01b0381166109e65760405162461bcd60e51b815260206004820152601960248201527f5369676e61747572653a20496e76616c6964207369676e6572000000000000006044820152606401610292565b95945050505050565b80356109fa81610c43565b919050565b803560ff811681146109fa57600080fd5b600060208284031215610a2257600080fd5b8135610a2d81610c43565b9392505050565b600060208284031215610a4657600080fd5b8151610a2d81610c43565b600080600080600080868803610180811215610a6c57600080fd5b8735610a7781610c43565b96506020880135610a8781610c43565b95506040880135610a9781610c43565b9450606088013593506080880135925060e0609f1982011215610ab957600080fd5b5060a0870190509295509295509295565b600060208284031215610adc57600080fd5b81516001600160e01b031981168114610a2d57600080fd5b600060e08284031215610b0657600080fd5b60405160e0810181811067ffffffffffffffff82111715610b3757634e487b7160e01b600052604160045260246000fd5b604052610b43836109ef565b8152610b51602084016109ef565b60208201526040830135604082015260608301356060820152610b76608084016109ff565b608082015260a083013560a082015260c083013560c08201528091505092915050565b600060208284031215610bab57600080fd5b5035919050565b600060208284031215610bc457600080fd5b5051919050565b600060208284031215610bdd57600080fd5b610a2d826109ff565b82815260006020604081840152835180604085015260005b81811015610c1a57858101830151858201606001528201610bfe565b81811115610c2c576000606083870101525b50601f01601f191692909201606001949350505050565b6001600160a01b0381168114610c5857600080fd5b5056fea2646970667358221220f40714ffda4948efae0af471d5ac299c755ff7402146a39125c1b659c3bb0da364736f6c63430008060033",
    "linkReferences": {},
    "deployedLinkReferences": {}
}